:2000000002000602006275810712008EE58260030200037900E94400601B7A0090009278D3
:200020000175A000E493F2A308B8000205A0D9F4DAF275A0FFE478FFF6D8FD7800E84400C0
:20004000600A790175A000E4F309D8FC7800E84400600C7900900001E4F0A3D8FCD9FA02B9
:2000600000037F01EFF4FE8EA08EB08F06EE2EFF70027F01C00712007DD00780E77F8A7EF3
:20008000C37D0ADFFEDEFC8D041DEC70F622758200224C6F72656D20697073756D20646FE4
:2000A0006C6F722073697420616D65742C20636F6E73656374657475722061646970697327
:2000C00063696E6720656C69742E20457469616D206566666963697475722070756C766942
:2000E0006E617220616C697175616D2E2044756973207068617265747261206E6563207471
:20010000656C6C7573206E6F6E2074656D706F722E2043726173206C756374757320657507
:2001200020647569206C616F7265657420696D706572646965742E204E756C6C61206C6137
:200140006F72656574206F64696F206E756E632C206575206469676E697373696D206E69DD
:20016000736C20666163696C6973697320717569732E20496E20657520756C7472696369CC
:200180006573206E756E632C20696E207072657469756D20746F72746F722E20496E206912
:2001A00064206F64696F2072686F6E63757320657261742072686F6E637573206661756341
:2001C000696275732076656C206E65632065726F732E204D6175726973206D61676E6120D3
:2001E0006D61676E612C207363656C6572697371756520656765742076656E656E617469CB
:20020000732073697420616D65742C207363656C65726973717565206163206475692E20AF
:2002200053656420646170696275732076656C69742075726E612C2073697420616D65741D
:2002400020736F6C6C696369747564696E206D69206D6178696D75732061742E20506861F5
:2002600073656C6C7573206E656320616E7465206C6F72656D2E2053757370656E6469737D
:20028000736520766573746962756C756D206D61737361206F7263692C206E6F6E20706F7E
:2002A0007274612065726F732074656D7075732061632E20566573746962756C756D206E70
:2002C000696268206A7573746F2C206665726D656E74756D20757420747572706973207611
:2002E000656C2C206672696E67696C6C6120616C697175616D206F64696F2E204E756E6372
:20030000206964206D6F6C6573746965206D61757269732E205365642066696E6962757343
:20032000206E696268206D61757269732C20757420766976657272612065782074696E632C
:200340006964756E742069642E2053757370656E6469737365206575206C656F20636F6DEF
:200360006D6F646F2C206C75637475732065726F732074696E636964756E742C2076656888
:200380006963756C61206E756C6C612E0D0A0D0A566573746962756C756D20646170696267
:2003A00075732073617069656E207175616D2C2076656C20656765737461732064756920C0
:2003C000736F6C6C696369747564696E2065742E20437572616269747572206575206D6526
:2003E0007475732061756775652E204D6F72626920636F6E76616C6C6973207072657469F4
:20040000756D2070656C6C656E7465737175652E204E756C6C616D2068656E64726572699B
:2004200074206E6F6E20656C6974207669746165206F726E6172652E2056657374696275FF
:200440006C756D20657569736D6F6420696E74657264756D2068656E6472657269742E207D
:200460005365642070656C6C656E746573717565207072657469756D2065676573746173F7
:200480002E20416C697175616D20656C656D656E74756D20756C74726963696573206D6F68
:2004A0006C65737469652E20416C697175616D206572617420766F6C75747061742E204E97
:2004C000616D2072686F6E63757320756C74726963696573206A7573746F2C2076697461E3
:2004E00065206D616C657375616461206E697369206375727375732061632E2041656E6587
:20050000616E206D6178696D75732C206C656F2065742076697665727261207375736369FD
:200520007069742C206A7573746F206C656374757320706F7375657265206C616375732CB6
:20054000206E6F6E2070756C76696E6172206F64696F206C61637573206C616F7265657490
:2005600020746F72746F722E20446F6E65632067726176696461206C7563747573206C6FC1
:2005800072656D2065742074696E636964756E742E2050686173656C6C7573207574206D97
:2005A00061757269732071756973206469616D20646170696275732074656D7075732E2066
:2005C00050726F696E20696163756C69732074656D7075732065726F732C20736974206155
:2005E0006D65742066696E69627573206E69736C206D6F6C657374696520717569732E201D
:2006000053656420696D7065726469657420657820657261742C2069642063757273757334
:20062000206D61676E6120756C6C616D636F727065722076656C2E0D0A0D0A4E616D206968
:200640006E74657264756D2073697420616D65742065782065752072757472756D2E205000
:20066000726F696E20736F6C6C696369747564696E207072657469756D206469616D2C2062
:200680006575207665686963756C6120616E74652072686F6E6375732072757472756D2E28
:2006A00020536564206120636F6E736571756174206D61757269732C2073697420616D65EA
:2006C0007420766573746962756C756D2074656C6C75732E2053757370656E646973736599
:2006E00020696E207669766572726120617263752E204E756C6C61206174206E756C6C619E
:200700002074696E636964756E742C20636F6E7365637465747572206E69626820696E2C08
:2007200020656765737461732073617069656E2E2050686173656C6C757320626962656EEE
:2007400064756D206F726369206174207175616D20736F6C6C696369747564696E2C206ED0
:200760006F6E206665756769617420657374206469676E697373696D2E204E756C6C616D8D
:2007800020636F6E6775652065742073656D20757420766F6C75747061742E2046757363D3
:2007A0006520696E2074656C6C75732061632064756920656C656D656E74756D20656666A1
:2007C000696369747572206E65632073697420616D65742070757275732E204E756C6C6153
:2007E00020666163696C6973692E2044756973206D692073617069656E2C2072757472758E
:200800006D2073697420616D6574206E756C6C612075742C206C616F7265657420696D7051
:2008200065726469657420656E696D2E2051756973717565206163206E69736C206E696224
:20084000682E20446F6E6563206D61676E612066656C69732C20736F64616C657320757462
:200860002074696E636964756E74206E6F6E2C2076756C7075746174652073697420616D87
:2008800065742061756775652E204C6F72656D20697073756D20646F6C6F722073697420DD
:2008A000616D65742C20636F6E73656374657475722061646970697363696E6720656C6901
:2008C000742E20457469616D206566666963697475722070756C76696E617220616C69712D
:2008E00075616D2E2044756973207068617265747261206E65632074656C6C7573206E6F4F
:200900006E2074656D706F722E2043726173206C756374757320657520647569206C616F63
:200920007265657420696D706572646965742E204E756C6C61206C616F72656574206F64DB
:20094000696F206E756E632C206575206469676E697373696D206E69736C20666163696CE9
:200960006973697320717569732E20496E20657520756C74726963696573206E756E632CEA
:2009800020696E207072657469756D20746F72746F722E20496E206964206F64696F207221
:2009A000686F6E63757320657261742072686F6E6375732066617563696275732076656CE0
:2009C000206E65632065726F732E204D6175726973206D61676E61206D61676E612C207322
:2009E00063656C6572697371756520656765742076656E656E617469732073697420616DB5
:200A000065742C207363656C65726973717565206163206475692E2053656420646170699E
:200A20006275732076656C69742075726E612C2073697420616D657420736F6C6C696369E0
:200A4000747564696E206D69206D6178696D75732061742E2050686173656C6C7573206ED6
:200A6000656320616E7465206C6F72656D2E2053757370656E646973736520766573746978
:200A800062756C756D206D61737361206F7263692C206E6F6E20706F7274612065726F7379
:200AA0002074656D7075732061632E20566573746962756C756D206E696268206A7573746F
:200AC0006F2C206665726D656E74756D207574207475727069732076656C2C206672696E56
:200AE00067696C6C6120616C697175616D206F64696F2E204E756E63206964206D6F6C657C
:200B000073746965206D61757269732E205365642066696E69627573206E696268206D6146
:200B2000757269732C20757420766976657272612065782074696E636964756E74206964C2
:200B40002E2053757370656E6469737365206575206C656F20636F6D6D6F646F2C206C751C
:200B6000637475732065726F732074696E636964756E742C207665686963756C61206E754B
:200B80006C6C612E0D0A0D0A566573746962756C756D206461706962757320736170696556
:200BA0006E207175616D2C2076656C20656765737461732064756920736F6C6C696369746F
:200BC0007564696E2065742E20437572616269747572206575206D65747573206175677553
:200BE000652E204D6F72626920636F6E76616C6C6973207072657469756D2070656C6C6506
:200C00006E7465737175652E204E756C6C616D2068656E647265726974206E6F6E20656CD7
:200C20006974207669746165206F726E6172652E20566573746962756C756D2065756973A3
:200C40006D6F6420696E74657264756D2068656E6472657269742E205365642070656C6CB0
:200C6000656E746573717565207072657469756D20656765737461732E20416C697175612D
:200C80006D20656C656D656E74756D20756C74726963696573206D6F6C65737469652E2037
:200CA000416C697175616D206572617420766F6C75747061742E204E616D2072686F6E635B
:200CC000757320756C74726963696573206A7573746F2C207669746165206D616C657375D7
:200CE000616461206E697369206375727375732061632E2041656E65616E206D6178696D80
:200D000075732C206C656F20657420766976657272612073757363697069742C206A757315
:200D2000746F206C656374757320706F7375657265206C616375732C206E6F6E2070756CBD
:200D400076696E6172206F64696F206C61637573206C616F7265657420746F72746F722E6C
:200D600020446F6E65632067726176696461206C7563747573206C6F72656D2065742074E0
:200D8000696E636964756E742E2050686173656C6C7573207574206D617572697320717536
:200DA0006973206469616D20646170696275732074656D7075732E2050726F696E20696196
:200DC00063756C69732074656D7075732065726F732C2073697420616D65742066696E6933
:200DE000627573206E69736C206D6F6C657374696520717569732E2053656420696D70653A
:200E0000726469657420657820657261742C20696420637572737573206D61676E6120755A
:200E20006C6C616D636F727065722076656C2E0D0A0D0A4E616D20696E74657264756D20FA
:200E400073697420616D65742065782065752072757472756D2E2050726F696E20736F6CF1
:200E60006C696369747564696E207072657469756D206469616D2C20657520766568696377
:200E8000756C6120616E74652072686F6E6375732072757472756D2E2053656420612063E9
:200EA0006F6E736571756174206D61757269732C2073697420616D65742076657374696201
:200EC000756C756D2074656C6C75732E2053757370656E646973736520696E2076697665E1
:200EE00072726120617263752E204E756C6C61206174206E756C6C612074696E6369647557
:200F00006E742C20636F6E7365637465747572206E69626820696E2C206567657374617304
:200F20002073617069656E2E2050686173656C6C757320626962656E64756D206F726369DF
:200F4000206174207175616D20736F6C6C696369747564696E2C206E6F6E206665756769CE
:200F6000617420657374206469676E697373696D2E204E756C6C616D20636F6E67756520D1
:200F800065742073656D20757420766F6C75747061742E20467573636520696E2074656CCB
:200FA0006C75732061632064756920656C656D656E74756D20656666696369747572206E3C
:200FC00065632073697420616D65742070757275732E204E756C6C6120666163696C69736E
:200FE000692E2044756973206D692073617069656E2C2072757472756D2073697420616DB6
:201000006574206E756C6C612075742C206C616F7265657420696D70657264696574206512
:201020006E696D2E2051756973717565206163206E69736C206E6962682E20446F6E65637F
:20104000206D61676E612066656C69732C20736F64616C65732075742074696E63696475E9
:201060006E74206E6F6E2C2076756C7075746174652073697420616D65742061756775657F
:201080002E204C6F72656D20697073756D20646F6C6F722073697420616D65742C20636F20
:2010A0006E73656374657475722061646970697363696E6720656C69742E20457469616D0C
:2010C000206566666963697475722070756C76696E617220616C697175616D2E2044756924
:2010E00073207068617265747261206E65632074656C6C7573206E6F6E2074656D706F72D5
:201100002E2043726173206C756374757320657520647569206C616F7265657420696D706A
:201120006572646965742E204E756C6C61206C616F72656574206F64696F206E756E632C11
:20114000206575206469676E697373696D206E69736C20666163696C697369732071756992
:20116000732E20496E20657520756C74726963696573206E756E632C20696E207072657437
:2011800069756D20746F72746F722E20496E206964206F64696F2072686F6E6375732065D6
:2011A0007261742072686F6E6375732066617563696275732076656C206E65632065726F31
:2011C000732E204D6175726973206D61676E61206D61676E612C207363656C65726973717E
:2011E000756520656765742076656E656E617469732073697420616D65742C207363656C39
:2012000065726973717565206163206475692E2053656420646170696275732076656C6948
:20122000742075726E612C2073697420616D657420736F6C6C696369747564696E206D69D8
:20124000206D6178696D75732061742E2050686173656C6C7573206E656320616E74652038
:201260006C6F72656D2E2053757370656E646973736520766573746962756C756D206D610D
:20128000737361206F7263692C206E6F6E20706F7274612065726F732074656D70757320A6
:2012A00061632E20566573746962756C756D206E696268206A7573746F2C206665726D657B
:2012C0006E74756D207574207475727069732076656C2C206672696E67696C6C6120616C22
:2012E000697175616D206F64696F2E204E756E63206964206D6F6C6573746965206D617552
:201300007269732E205365642066696E69627573206E696268206D61757269732C2075745E
:2013200020766976657272612065782074696E636964756E742069642E2053757370656EE6
:201340006469737365206575206C656F20636F6D6D6F646F2C206C75637475732065726FBB
:20136000732074696E636964756E742C207665686963756C61206E756C6C612E0D0A0D0AD3
:20138000566573746962756C756D20646170696275732073617069656E207175616D2C2055
:2013A00076656C20656765737461732064756920736F6C6C696369747564696E2065742E1E
:2013C00020437572616269747572206575206D657475732061756775652E204D6F72626976
:2013E00020636F6E76616C6C6973207072657469756D2070656C6C656E7465737175652E77
:20140000204E756C6C616D2068656E647265726974206E6F6E20656C6974207669746165EC
:20142000206F726E6172652E20566573746962756C756D20657569736D6F6420696E7465A1
:201440007264756D2068656E6472657269742E205365642070656C6C656E7465737175654E
:20146000207072657469756D20656765737461732E20416C697175616D20656C656D656E8C
:2014800074756D20756C74726963696573206D6F6C65737469652E20416C697175616D2048
:2014A0006572617420766F6C75747061742E204E616D2072686F6E63757320756C74726905
:2014C00063696573206A7573746F2C207669746165206D616C657375616461206E6973690E
:2014E000206375727375732061632E2041656E65616E206D6178696D75732C206C656F20DD
:20150000657420766976657272612073757363697069742C206A7573746F206C6563747581
:201520007320706F7375657265206C616375732C206E6F6E2070756C76696E6172206F64C2
:20154000696F206C61637573206C616F7265657420746F72746F722E20446F6E65632067E7
:20156000726176696461206C7563747573206C6F72656D2065742074696E636964756E740A
:201580002E2050686173656C6C7573207574206D61757269732071756973206469616D20D5
:2015A000646170696275732074656D7075732E2050726F696E20696163756C69732074652C
:2015C0006D7075732065726F732C2073697420616D65742066696E69627573206E69736C24
:2015E000206D6F6C657374696520717569732E2053656420696D706572646965742065783D
:2016000020657261742C20696420637572737573206D61676E6120756C6C616D636F72700D
:2016200065722076656C2E0D0A0D0A4E616D20696E74657264756D2073697420616D657435
:201640002065782065752072757472756D2E2050726F696E20736F6C6C69636974756469A9
:201660006E207072657469756D206469616D2C206575207665686963756C6120616E7465BC
:201680002072686F6E6375732072757472756D2E20536564206120636F6E7365717561747B
:2016A000206D61757269732C2073697420616D657420766573746962756C756D2074656C41
:2016C0006C75732E2053757370656E646973736520696E20766976657272612061726375F1
:2016E0002E204E756C6C61206174206E756C6C612074696E636964756E742C20636F6E737E
:2017000065637465747572206E69626820696E2C20656765737461732073617069656E2E0F
:201720002050686173656C6C757320626962656E64756D206F726369206174207175616DDC
:2017400020736F6C6C696369747564696E2C206E6F6E2066657567696174206573742064CA
:2017600069676E697373696D2E204E756C6C616D20636F6E6775652065742073656D2075BB
:201780007420766F6C75747061742E20467573636520696E2074656C6C75732061632064DA
:2017A000756920656C656D656E74756D20656666696369747572206E656320736974206137
:2017C0006D65742070757275732E204E756C6C6120666163696C6973692E204475697320B3
:2017E0006D692073617069656E2C2072757472756D2073697420616D6574206E756C6C6105
:201800002075742C206C616F7265657420696D7065726469657420656E696D2E205175695E
:2018200073717565206163206E69736C206E6962682E20446F6E6563206D61676E6120668E
:20184000656C69732C20736F64616C65732075742074696E636964756E74206E6F6E2C20F2
:2018600076756C7075746174652073697420616D65742061756775652E204C6F72656D20A3
:20188000697073756D20646F6C6F722073697420616D65742C20636F6E736563746574751A
:2018A000722061646970697363696E6720656C69742E20457469616D206566666963697475
:2018C00075722070756C76696E617220616C697175616D2E204475697320706861726574FF
:2018E0007261206E65632074656C6C7573206E6F6E2074656D706F722E2043726173206C81
:20190000756374757320657520647569206C616F7265657420696D706572646965742E20FA
:201920004E756C6C61206C616F72656574206F64696F206E756E632C206575206469676E18
:20194000697373696D206E69736C20666163696C6973697320717569732E20496E206575D4
:2019600020756C74726963696573206E756E632C20696E207072657469756D20746F72746D
:201980006F722E20496E206964206F64696F2072686F6E63757320657261742072686F6EE4
:2019A0006375732066617563696275732076656C206E65632065726F732E204D6175726988
:2019C00073206D61676E61206D61676E612C207363656C6572697371756520656765742076
:2019E00076656E656E617469732073697420616D65742C207363656C6572697371756520D2
:201A00006163206475692E2053656420646170696275732076656C69742075726E612C20C8
:201A200073697420616D657420736F6C6C696369747564696E206D69206D6178696D757342
:201A40002061742E2050686173656C6C7573206E656320616E7465206C6F72656D2E205394
:201A6000757370656E646973736520766573746962756C756D206D61737361206F726369B1
:201A80002C206E6F6E20706F7274612065726F732074656D7075732061632E2056657374FE
:201AA0006962756C756D206E696268206A7573746F2C206665726D656E74756D207574203A
:201AC0007475727069732076656C2C206672696E67696C6C6120616C697175616D206F64F7
:201AE000696F2E204E756E63206964206D6F6C6573746965206D61757269732E20536564A2
:201B00002066696E69627573206E696268206D61757269732C2075742076697665727261EF
:201B20002065782074696E636964756E742069642E2053757370656E6469737365206575EB
:201B4000206C656F20636F6D6D6F646F2C206C75637475732065726F732074696E636964B7
:201B6000756E742C207665686963756C61206E756C6C612E0D0A0D0A566573746962756C8B
:201B8000756D20646170696275732073617069656E207175616D2C2076656C206567657390
:201BA0007461732064756920736F6C6C696369747564696E2065742E204375726162697437
:201BC0007572206575206D657475732061756775652E204D6F72626920636F6E76616C6C49
:201BE0006973207072657469756D2070656C6C656E7465737175652E204E756C6C616D20D5
:201C000068656E647265726974206E6F6E20656C6974207669746165206F726E6172652EB8
:201C200020566573746962756C756D20657569736D6F6420696E74657264756D2068656E5B
:201C40006472657269742E205365642070656C6C656E746573717565207072657469756D33
:201C600020656765737461732E20416C697175616D20656C656D656E74756D20756C74726D
:201C80006963696573206D6F6C65737469652E20416C697175616D206572617420766F6C60
:201CA00075747061742E204E616D2072686F6E63757320756C74726963696573206A757304
:201CC000746F2C207669746165206D616C657375616461206E697369206375727375732037
:201CE00061632E2041656E65616E206D6178696D75732C206C656F20657420766976657295
:201D000072612073757363697069742C206A7573746F206C656374757320706F737565726D
:201D200065206C616375732C206E6F6E2070756C76696E6172206F64696F206C61637573DB
:201D4000206C616F7265657420746F72746F722E20446F6E65632067726176696461206CEC
:201D60007563747573206C6F72656D2065742074696E636964756E742E2050686173656C5A
:201D80006C7573207574206D61757269732071756973206469616D20646170696275732070
:201DA00074656D7075732E2050726F696E20696163756C69732074656D7075732065726F01
:201DC000732C2073697420616D65742066696E69627573206E69736C206D6F6C657374692A
:201DE0006520717569732E2053656420696D7065726469657420657820657261742C2069D1
:201E00006420637572737573206D61676E6120756C6C616D636F727065722076656C2E0D0D
:201E20000A0D0A4E616D20696E74657264756D2073697420616D657420657820657520721D
:201E4000757472756D2E2050726F696E20736F6C6C696369747564696E2070726574697503
:201E60006D206469616D2C206575207665686963756C6120616E74652072686F6E637573B9
:201E80002072757472756D2E20536564206120636F6E736571756174206D61757269732CB8
:201EA0002073697420616D657420766573746962756C756D2074656C6C75732E2053757339
:201EC00070656E646973736520696E207669766572726120617263752E204E756C6C61205C
:201EE0006174206E756C6C612074696E636964756E742C20636F6E736563746574757220C4
:201F00006E69626820696E2C20656765737461732073617069656E2E2050686173656C6C3A
:201F2000757320626962656E64756D206F726369206174207175616D20736F6C6C696369AE
:201F4000747564696E2C206E6F6E206665756769617420657374206469676E697373696D6E
:201F60002E204E756C6C616D20636F6E6775652065742073656D20757420766F6C757470D8
:201F800061742E20467573636520696E2074656C6C75732061632064756920656C656D650A
:201FA0006E74756D20656666696369747572206E65632073697420616D6574207075727503
:201FC000732E204E756C6C6120666163696C6973692E2044756973206D69207361706965D5
:201FE0006E2C2072757472756D2073697420616D787878656E6420617438397338323532D1
:202000004C6F72656D20697073756D20646F6C6F722073697420616D65742C20636F6E73FD
:20202000656374657475722061646970697363696E6720656C69742E20457469616D2065D8
:2020400066666963697475722070756C76696E617220616C697175616D2E20447569732086
:202060007068617265747261206E65632074656C6C7573206E6F6E2074656D706F722E208A
:2020800043726173206C756374757320657520647569206C616F7265657420696D70657252
:2020A000646965742E204E756C6C61206C616F72656574206F64696F206E756E632C2065D4
:2020C00075206469676E697373696D206E69736C20666163696C6973697320717569732EE7
:2020E00020496E20657520756C74726963696573206E756E632C20696E207072657469756B
:202100006D20746F72746F722E20496E206964206F64696F2072686F6E6375732065726151
:20212000742072686F6E6375732066617563696275732076656C206E65632065726F732ED3
:20214000204D6175726973206D61676E61206D61676E612C207363656C65726973717565B5
:2021600020656765742076656E656E617469732073697420616D65742C207363656C6572AC
:202180006973717565206163206475692E2053656420646170696275732076656C697420FC
:2021A00075726E612C2073697420616D657420736F6C6C696369747564696E206D69206D50
:2021C0006178696D75732061742E2050686173656C6C7573206E656320616E7465206C6F5B
:2021E00072656D2E2053757370656E646973736520766573746962756C756D206D61737373
:2022000061206F7263692C206E6F6E20706F7274612065726F732074656D70757320616338
:202220002E20566573746962756C756D206E696268206A7573746F2C206665726D656E74CD
:20224000756D207574207475727069732076656C2C206672696E67696C6C6120616C69719A
:2022600075616D206F64696F2E204E756E63206964206D6F6C6573746965206D61757269C1
:20228000732E205365642066696E69627573206E696268206D61757269732C207574207614
:2022A0006976657272612065782074696E636964756E742069642E2053757370656E646920
:2022C000737365206575206C656F20636F6D6D6F646F2C206C75637475732065726F732066
:2022E00074696E636964756E742C207665686963756C61206E756C6C612E0D0A0D0A56651C
:2023000073746962756C756D20646170696275732073617069656E207175616D2C207665A5
:202320006C20656765737461732064756920736F6C6C696369747564696E2065742E204306
:202340007572616269747572206575206D657475732061756775652E204D6F7262692063C6
:202360006F6E76616C6C6973207072657469756D2070656C6C656E7465737175652E204EFC
:20238000756C6C616D2068656E647265726974206E6F6E20656C6974207669746165206F3C
:2023A000726E6172652E20566573746962756C756D20657569736D6F6420696E74657264CB
:2023C000756D2068656E6472657269742E205365642070656C6C656E746573717565207005
:2023E00072657469756D20656765737461732E20416C697175616D20656C656D656E7475A4
:202400006D20756C74726963696573206D6F6C65737469652E20416C697175616D206572CA
:20242000617420766F6C75747061742E204E616D2072686F6E63757320756C747269636980
:202440006573206A7573746F2C207669746165206D616C657375616461206E6973692063C7
:2024600075727375732061632E2041656E65616E206D6178696D75732C206C656F206574F7
:2024800020766976657272612073757363697069742C206A7573746F206C65637475732038
:2024A000706F7375657265206C616375732C206E6F6E2070756C76696E6172206F64696FEE
:2024C000206C61637573206C616F7265657420746F72746F722E20446F6E6563206772615D
:2024E00076696461206C7563747573206C6F72656D2065742074696E636964756E742E2000
:2025000050686173656C6C7573207574206D61757269732071756973206469616D206461CE
:2025200070696275732074656D7075732E2050726F696E20696163756C69732074656D7084
:2025400075732065726F732C2073697420616D65742066696E69627573206E69736C206DE4
:202560006F6C657374696520717569732E2053656420696D706572646965742065782065B5
:202580007261742C20696420637572737573206D61676E6120756C6C616D636F727065722C
:2025A0002076656C2E0D0A0D0A4E616D20696E74657264756D2073697420616D65742065F8
:2025C000782065752072757472756D2E2050726F696E20736F6C6C696369747564696E2011
:2025E0007072657469756D206469616D2C206575207665686963756C6120616E7465207229
:20260000686F6E6375732072757472756D2E20536564206120636F6E736571756174206DF0
:2026200061757269732C2073697420616D657420766573746962756C756D2074656C6C755D
:20264000732E2053757370656E646973736520696E207669766572726120617263752E20F4
:202660004E756C6C61206174206E756C6C612074696E636964756E742C20636F6E73656374
:202680007465747572206E69626820696E2C20656765737461732073617069656E2E2050D8
:2026A000686173656C6C757320626962656E64756D206F726369206174207175616D20732A
:2026C0006F6C6C696369747564696E2C206E6F6E20666575676961742065737420646967FE
:2026E0006E697373696D2E204E756C6C616D20636F6E6775652065742073656D2075742068
:20270000766F6C75747061742E20467573636520696E2074656C6C75732061632064756900
:2027200020656C656D656E74756D20656666696369747572206E65632073697420616D65B3
:20274000742070757275732E204E756C6C6120666163696C6973692E2044756973206D691F
:202760002073617069656E2C2072757472756D2073697420616D6574206E756C6C612075B6
:20278000742C206C616F7265657420696D7065726469657420656E696D2E20517569737180
:2027A0007565206163206E69736C206E6962682E20446F6E6563206D61676E612066656C12
:2027C00069732C20736F64616C65732075742074696E636964756E74206E6F6E2C20767549
:2027E0006C7075746174652073697420616D65742061756775652E4C6F72656D20697073D3
:20280000756D20646F6C6F722073697420616D65742C20636F6E73656374657475722061E3
:20282000646970697363696E6720656C69742E20457469616D2065666669636974757220D1
:2028400070756C76696E617220616C697175616D2E20447569732070686172657472612083
:202860006E65632074656C6C7573206E6F6E2074656D706F722E2043726173206C75637498
:20288000757320657520647569206C616F7265657420696D706572646965742E204E756C88
:2028A0006C61206C616F72656574206F64696F206E756E632C206575206469676E69737369
:2028C000696D206E69736C20666163696C6973697320717569732E20496E20657520756C93
:2028E00074726963696573206E756E632C20696E207072657469756D20746F72746F722ED0
:2029000020496E206964206F64696F2072686F6E63757320657261742072686F6E63757318
:202920002066617563696275732076656C206E65632065726F732E204D6175726973206D43
:2029400061676E61206D61676E612C207363656C6572697371756520656765742076656E9D
:20296000656E617469732073697420616D65742C207363656C6572697371756520616320A7
:202980006475692E2053656420646170696275732076656C69742075726E612C20736974CD
:2029A00020616D657420736F6C6C696369747564696E206D69206D6178696D75732061740E
:2029C0002E2050686173656C6C7573206E656320616E7465206C6F72656D2E2053757370A2
:2029E000656E646973736520766573746962756C756D206D61737361206F7263692C206EC0
:202A00006F6E20706F7274612065726F732074656D7075732061632E2056657374696275E8
:202A20006C756D206E696268206A7573746F2C206665726D656E74756D207574207475728F
:202A40007069732076656C2C206672696E67696C6C6120616C697175616D206F64696F2EBC
:202A6000204E756E63206964206D6F6C6573746965206D61757269732E2053656420666929
:202A80006E69627573206E696268206D61757269732C207574207669766572726120657852
:202AA0002074696E636964756E742069642E2053757370656E6469737365206575206C6568
:202AC0006F20636F6D6D6F646F2C206C75637475732065726F732074696E636964756E74C2
:202AE0002C207665686963756C61206E756C6C612E0D0A0D0A566573746962756C756D2051
:202B0000646170696275732073617069656E207175616D2C2076656C2065676573746173BA
:202B20002064756920736F6C6C696369747564696E2065742E2043757261626974757220E8
:202B40006575206D657475732061756775652E204D6F72626920636F6E76616C6C697320C4
:202B60007072657469756D2070656C6C656E7465737175652E204E756C6C616D2068656E06
:202B8000647265726974206E6F6E20656C6974207669746165206F726E6172652E20566589
:202BA00073746962756C756D20657569736D6F6420696E74657264756D2068656E6472656C
:202BC0007269742E205365642070656C6C656E746573717565207072657469756D206567F3
:202BE00065737461732E20416C697175616D20656C656D656E74756D20756C747269636995
:202C00006573206D6F6C65737469652E20416C697175616D206572617420766F6C757470AC
:202C200061742E204E616D2072686F6E63757320756C74726963696573206A7573746F2CBE
:202C4000207669746165206D616C657375616461206E697369206375727375732061632EC4
:202C60002041656E65616E206D6178696D75732C206C656F20657420766976657272612004
:202C800073757363697069742C206A7573746F206C656374757320706F7375657265206CE0
:202CA000616375732C206E6F6E2070756C76696E6172206F64696F206C61637573206C6150
:202CC0006F7265657420746F72746F722E20446F6E65632067726176696461206C756374FE
:202CE0007573206C6F72656D2065742074696E636964756E742E2050686173656C6C7573C3
:202D0000207574206D61757269732071756973206469616D20646170696275732074656DEE
:202D20007075732E2050726F696E20696163756C69732074656D7075732065726F732C20F8
:202D400073697420616D65742066696E69627573206E69736C206D6F6C6573746965207163
:202D60007569732E2053656420696D7065726469657420657820657261742C206964206350
:202D80007572737573206D61676E6120756C6C616D636F727065722076656C2E0D0A0D0A44
:202DA0004E616D20696E74657264756D2073697420616D6574206578206575207275747254
:202DC000756D2E2050726F696E20736F6C6C696369747564696E207072657469756D2064DE
:202DE00069616D2C206575207665686963756C6120616E74652072686F6E63757320727514
:202E00007472756D2E20536564206120636F6E736571756174206D61757269732C20736933
:202E20007420616D657420766573746962756C756D2074656C6C75732E2053757370656E62
:202E4000646973736520696E207669766572726120617263752E204E756C6C61206174201A
:202E60006E756C6C612074696E636964756E742C20636F6E7365637465747572206E6962F0
:202E80006820696E2C20656765737461732073617069656E2E2050686173656C6C757320DC
:202EA000626962656E64756D206F726369206174207175616D20736F6C6C696369747564DA
:202EC000696E2C206E6F6E206665756769617420657374206469676E697373696D2E204E90
:202EE000756C6C616D20636F6E6775652065742073656D20757420766F6C75747061742EE2
:202F000020467573636520696E2074656C6C75732061632064756920656C656D656E747526
:202F20006D20656666696369747572206E65632073697420616D65742070757275732E2009
:202F40004E756C6C6120666163696C6973692E2044756973206D692073617069656E2C204C
:202F600072757472756D2073697420616D6574206E756C6C612075742C206C616F72656562
:202F80007420696D7065726469657420656E696D2E2051756973717565206163206E697388
:202FA0006C206E6962682E20446F6E6563206D61676E612066656C69732C20736F64616CF7
:202FC00065732075742074696E636964756E74206E6F6E2C2076756C7075746174652073EA
:202FE000697420616D65742061756775652E4C6F787878656E6420617438397338323533C3
:013000007857
:00000001FF
