:03000000020006F5
:03005F0002000399
:0300030002006296
:100062007F01EFF4FE8EA08EB08F06EE2EFF70029F
:100072007F01C00712007DD00780E77F8A7EC37DA3
:0C0082000ADFFEDEFC8D041DEC70F6228F
:06003500E478FFF6D8FD9F
:100013007900E94400601B7A00900092780175A092
:1000230000E493F2A308B8000205A0D9F4DAF2754C
:02003300A0FF2C
:10003B007800E84400600A790175A000E4F309D860
:10004B00FC7800E84400600C7900900001E4F0A318
:04005B00D8FCD9FAFA
:0D00060075810712008EE582600302000381
:04008E007582002255
:00000001FF
